:0200000490303A
:100000009741000093810182970200009382420190
:080010007390523011A00000B2
:04001800012B0000B8
:10001C005D7116C21AC41EC672C876CA7ACC7ECE60
:10002C002AD02ED232D436D63AD83EDA42DC46DE4C
:10003C0006C0A2C4138441A2F322103496C0F32349
:10004C0000309EC2F322203493D2F201639F020649
:10005C00F3222034B7030080FD13B3F272002D435A
:10006C00638862020A8539718322850416C426C608
:10007C004AC84ECA52CC56CE5AD05ED262D466D63C
:10008C006AD86EDA23262504EF00B01E21616DA01C
:10009C008642910296C09242638402000D4511A0E3
:1000AC0002558A85397183A2850416C426C64AC8AE
:1000BC004ECA52CC56CE5AD05ED262D466D66AD8CC
:1000CC006EDA23A625046F00D003032304009303E8
:1000DC00130023207400631703008A820321440059
:1000EC00411116C073252034B7020080FD12337500
:1000FC005500EF00E00797220000938222640E0562
:10010C00AA9203A5020003A34200E7000300832385
:10011C000400FD13232074006390030202410C447D
:10012C0041112EC013050000EF10901882454101BB
:10013C0001C50929138441A2864296437390123457
:10014C0073900330264492422243B243424ED24E25
:10015C00624FF24F025592552256B2564257D25721
:10016C006258F25882406161730020300000000038
:0E017C000543B312A30073B342348280000027
:10018C00C1676376F5029337051093C717008E0786
:10019C0037373090930600029D8E3355F500930748
:1001AC004798AA9703C507003385A6408280370776
:1001BC000001C147E36EE5FCE147D9BFAA882E8355
:1001CC0032872A88AE8763960620B73530909385A0
:1001DC0045986371C30CC1666377D60A93360610D3
:1001EC0093C616008E063355D600AA9583C5050016
:1001FC0013050002AE96B305D540630BD500B317BB
:10020C00B300B3D6D8003317B600D58F3398B800E7
:10021C009355070133D3B702131607014182B3F785
:10022C00B7021A85B3086602939607019357080123
:10023C00D58F63FC1701BA971305F3FF63E7E7004B
:10024C0063F517011305E3FFBA97B3871741B3D8CA
:10025C00B702420813580801B3F7B702B3061603E6
:10026C00C2073368F800C687637BD8003A98938737
:10027C00F8FF6366E8006374D8009387E8FF4205D3
:10028C005D8D8145828037050001C146E36DA6F482
:10029C00E14691BF814609CAC167637FF608933670
:1002AC00061093C616008E06B357D600BE9583C7AC
:1002BC000500B69793060002B385F6406395F608E1
:1002CC00B307C34085459358070133DE1703131654
:1002DC000701418293560801B3F717037285330364
:1002EC00C603C207D58F63FC6700BA971305FEFFE0
:1002FC0063E7E70063F567001305EEFFBA97B38772
:10030C00674033D31703420813580801B3F7170398
:10031C00B3066602C2073368F8009A87637BD8007D
:10032C003A989307F3FF6366E8006374D800930769
:10033C00E3FF42055D8D8280B7070001C146E3658E
:10034C00F6F6E14695B73317B600B356F3001355DE
:10035C0007013313B300B3D7F800B3E7670033D307
:10036C00A6021316070141823398B800B3F6A60211
:10037C00B30866029395060193D60701CD8E9A8534
:10038C0063FC1601BA969305F3FF63E7E60063F589
:10039C0016019305E3FFBA96B3861641B3D8A602AD
:1003AC00C207C183B3F6A60233061603C206D58F65
:1003BC00C68663FCC700BA979386F8FF63E7E7002D
:1003CC0063F5C7009386E8FFBA97C205918FD58D68
:1003DC00DDBD63E1D514C16763FFF60213B70610E8
:1003EC00134717000E07B7373090B3D5E600938745
:1003FC004798AE9783C70700BA9713070002B30557
:10040C00F7406311F7020545E3EE66E633B5C80025
:10041C00134515008280B70700014147E3E5F6FC60
:10042C006147D1B73357F600B396B600D98E335720
:10043C00F3003313B300B3D7F800B3E7670013D35B
:10044C000601B35E670213980601135808013316B0
:10045C00B60033776702330ED8031315070113D791
:10046C000701498F7685637CC70136971385FEFF9C
:10047C006367D7006375C7011385EEFF36973307A3
:10048C00C741335E6702C207C18333776702330803
:10049C00C8034207D98F728763FC0701B69713070D
:1004AC00FEFF63E7D70063F507011307EEFFB6976E
:1004BC004205416E598D9306FEFF3377D500B38705
:1004CC000741F18E1358050141823303D702B3065D
:1004DC00D8023307C7023308C8023306D7001357B4
:1004EC00030132976373D700729893560701C29633
:1004FC0063E0D702E397D7D8C167FD177D8F42071A
:10050C003373F300B398B8001A978145E3FCE8D62F
:10051C007D1585BB8145014582800000732540F126
:10052C008D426303550011A8173100001301C1D38C
:10053C008562938202801691852309A07300501066
:10054C00F5BF000023AA150280DDC4DD23A025051C
:10055C0023A2350523A4450523A6550523A8650527
:10056C0023AA750523AC850523AE950523A0A50705
:10057C0023A2B50723A8250223A2B508032105034E
:10058C000322C50883204503005D445D032905044F
:10059C0083294504032A8504832AC504032B0505F6
:1005AC00832B4505032C8505832CC505032D0506DA
:1005BC00832D450682808280B73530903735309058
:1005CC004111938545A8130585A906C6EF10F02A9D
:1005DC00B24001454101828018458E05A167AA955C
:1005EC006366F7000A06B295884182800606B295CA
:1005FC0003D50500828018458E05A167AA95636610
:10060C00F7000A06B29594C182800606B295239033
:10061C00D50082804111054606C67D3FB24005815A
:10062C004101828018458E05A167AA95636AF7007F
:10063C00DC4109C693E71700DCC18280F99BEDBF52
:10064C0083D7250011C693E717002391F50082800C
:10065C00F99BE5BF93161600054671BF411106C6FE
:10066C001845A167636FF700A147A1078D83850526
:10067C003385F5403136B240FD473385A740410103
:10068C0082809147DDB7011122CC26CA06CE4AC81A
:10069C004EC603298500AE842A84AD3FA167AA8586
:1006AC006365F9008547630AF5062285453F931774
:1006BC002500A29703A9070163190902584485462E
:1006CC00B396A600558F58C4A6860946A68584CB3A
:1006DC0022851537A6860D46A68522856244F240F2
:1006EC00D2444249B249056139B70946CA852285C7
:1006FC00E535AA86AA890946A6852285ED3DCA86D6
:10070C000D46A6852285C53DA6860D46CE8522853D
:10071C00DD35A6860946CA85C9B7F2406244D24483
:10072C004249B24905618280011106CE22CC26CA0B
:10073C004AC84EC63707040091476363E600A147D9
:10074C001D8EB384C500138475006198E198818C6B
:10075C0000C18D8004C423260400A6852285FD3D9E
:10076C00930755008A07138977007D571359390071
:10077C0001466344E500138607FF81451305040118
:10078C00EF1090744A8622858145E9358146228591
:10079C00014681458D352285054681456135B389F4
:1007AC0024414E86CA8522857535CA86CA8522851E
:1007BC0001469135A68522850146693DCE86A685E2
:1007CC00228501460D3DA68522850546A13D228543
:1007DC006244F240D244B249CA854249056165B5CA
:1007EC0001458280B737309083A707028287B737DD
:1007FC00309023A0A7028280797102C88947230810
:10080C00F100B70730902E869387077FAA85680082
:10081C0006D602C602CC02CE3ECAEF109019B250D8
:10082C004561828039712ED24C1006CE32D436D628
:10083C003AD83EDA42DC46DE2EC67D3FF2402161DC
:10084C008280011126CA4AC806CE22CCAA842E89DF
:10085C0032C636C4EF10C02B2246B2452320A2006C
:10086C004A85829403250200EF10403E8280935704
:10087C00850093F7F70F99E785473395A700732504
:10088C0045308280F1AB9357850093F7F70F91C3F6
:10089C00F5A38280F37704307350403073504034AA
:1008AC008280B78700103707060098C7130700101F
:1008BC00D8C79847C166558F98C79843B70600C0EC
:1008CC00FD16758F98C38280828082806F10D05FF6
:1008DC0013868181938741A43386C7408145138554
:1008EC008181EDB7411106C6C53773005010F13F39
:1008FC00A14773A00730B240410182801305050562
:10090C008280797122D44AD006D626D24ECE2A893C
:10091C002E84F3252034B7393090860585811385D4
:10092C00C9F52EC60137B245C146B737309041479D
:10093C0063E3B6002E870A07938787E2BA97904342
:10094C00373530901305C5AAF13DF32530343735D2
:10095C003090130505ACF93509E88144A68522854C
:10096C00312EA2854A85EF00103150400C5037359E
:10097C003090130505AD7D3510444C503735309013
:10098C00130505AF453550440C54373530901305DD
:10099C0005B1493D10484C5437353090130505B31B
:1009AC00513550480C5837353090130505B59D3DE1
:1009BC00104C4C5837353090130505B7A535504CB5
:1009CC000C5C37353090130505B9A93D4C5C3735B7
:1009DC003090130505BBB9353735309093050405B8
:1009EC00130505BC81350C4037353090130505BD1A
:1009FC00153D2C4037353090130505BE25356C4020
:100A0C0037353090130505BF313D1385C9F5193DB8
:100A1C006444E38404F490508C44373530901305CF
:100A2C0005C00935D050CC4437353090130505C27C
:100A3C00D53B90548C4837353090130505C4DD33C5
:100A4C00D054CC4837353090130505C6E13B90584F
:100A5C008C4C37353090130505C8E933D058CC4C45
:100A6C0037353090130505CA753B1385C9F55D3BC9
:100A7C00F5B54111AA85014506C66135411106C679
:100A8C00F3272034860785832D476394E7003121B3
:100A9C00292981450545B535411106C6153DDD3B76
:100AAC00EF009037130606FB419A1CD68967938793
:100ABC0007887CC2B71730909387E7843CC2B7078E
:100ACC00309014D258D2232606039387071410D9DA
:100ADC005CD92322A50882801305A0F7828001111E
:100AEC0052C426CA4EC69304400093090000CE940B
:100AFC0022CC33849540B73530904AC81306000099
:100B0C002A8993858596228506CEEF10903A330577
:100B1C003401130640008145EF10103B2326890851
:100B2C00F24062444249B249224A2685D2440561C8
:100B3C00828093773500AA869DE783C7D500858B85
:100B4C0085C337373090856713070727938707804E
:100B5C00BA97C19B014563E9E60033B5F600828084
:100B6C00F859BC5DF5B70145828039714AD84ED62B
:100B7C0052D456D25AD006DE22DC26DA5ECE62CCB5
:100B8C0066CA6AC86EC6AA892E8AB28A36893A8B18
:100B9C00A1C23685A533832409042A84370C3090EE
:100BAC00B72C3090814B814D130CCC18938C4C6E20
:100BBC00214D4A86D6852285029B29C963F88D046E
:100BCC0063F98403044093074400A28D3E84D5B797
:100BDC0081CB138741A21847130707036398E700DB
:100BEC00B71430900A84938464B74DBF8043C443D8
:100BFC0075B7E3F994FD2286A6855285829919C5AD
:100C0C00850B044093074400E391ABFDF250625412
:100C1C00D2544259B259225A925A025BF24B624C4C
:100C2C00D24C424DB24D21618280411106C6AE8636
:100C3C000C411387150018C1373530901305C5E6E4
:100C4C00D536B240054541018280937635002A871E
:100C5C0085E681C583A741A299CFB737309093879A
:100C6C0007270145636BF700856693860680B69768
:100C7C003335F700828075BD0145828079712AC6B3
:100C8C00373530901305C5E806D62EC402CE593E32
:100C9C00138641A2A247B24610463717309037153B
:100CAC003090130767C56C08130565C37D3D373558
:100CBC0030901305C5F5BD36B2504561828083A7CF
:100CCC000183411106C68297B240014541018280E1
:100CDC00411106C6ED37B24001454101828023A87F
:100CEC00A182B73730909387070003C7470013677B
:100CFC0027002382E7008280B745309093857507E3
:100D0C00E199370640904111138581A10D8E06C6DD
:100D1C00213CB24001454101828041112D450146E3
:100D2C00814506C68D36B2402D45410189B67327E3
:100D3C0040F15C510A074841BA979C439E073E9587
:100D4C008280411122C413548500373530901374BE
:100D5C00F40F1305C5EB26C27D1406C6AE84C13F45
:100D6C00935754008A073E9518418547B3978700DF
:100D7C0081C8D98F1CC1B240224492444101828067
:100D8C0093C7F7FFF98FFDB7411106C622C426C2DF
:100D9C004AC003294500F32640F1032749028A067D
:100DAC00369700430327890083C741A332041107F8
:100DBC003A9404408A07138781833E9704C31387B0
:100DCC004183BA9788C389C48327490163E4F4003B
:100DDC0001456D318327090213973400BA97D84324
:100DEC008843029704C0B240224492440249410114
:100DFC008280411126C206C622C44AC04041AA8440
:100E0C002285032904002537732740F15C500A071B
:100E1C008146BA979C431844B207BA971397260099
:100E2C002A9723200700D8408506584B15830507C1
:100E3C00E3E6E6FE23A007008147584863EBE70092
:100E4C005C4C8297B24022449244024901454101D4
:100E5C008280139727004A97232007008507F1BF4C
:100E6C00411106C622C4737404308545D93D2188CE
:100E7C0073200430B2402244410182809D4763F3C9
:100E8C00B7009D459357850093F7F70FFD178A0719
:100E9C003707000CBA978CC3828083C741A3138792
:100EAC0081838A07BA978843828083C741A31387BB
:100EBC0041838A07BA9788438280411106C622C4AF
:100ECC0037253090130585725923B55719C9371436
:100EDC003090130584EF2135130584EFEFF03F912B
:100EEC008147B24022443E8541018280411122C497
:100EFC0026C24AC0B724309006C6A9472A84138953
:100F0C0084726319F50083278900B54513858472B3
:100F1C00DC43829783278900138584729375F40FC1
:100F2C00DC438297B240228522449244024941011B
:100F3C0082801C411CC28346450018418E063697A0
:100F4C0063E4E7007955828003C757006304B70058
:100F5C00A107CDB701458280B7280110014885460D
:100F6C00FD4E1383C8036344B80001458280034ED1
:100F7C0015008347050063E4C60363E2FE02032702
:100F8C0003003396F600631FDE00518F2320E3002D
:100F9C0003A78803B397F600D98F23ACF802050892
:100FAC000905D1B71346F6FF718FCDB71C49014522
:100FBC00984398C103C747002382E50003C7570035
:100FCC00A382E50003C767002383E50083C777008E
:100FDC00A383F5008280737704305C41954690437F
:100FEC0083C70701B387D702B29783C6070093F66E
:100FFC000602E5DE2300B6009377870073A0073066
:10100C008280737704305441154683C7060194429D
:10101C00B387C702B69703C507009377870013758C
:10102C00F50F73A00730798905818280797122D4FC
:10103C0026D206D64AD04ECE52CC032A050103291D
:10104C0045002A84AE8402C4F37904300325490197
:10105C0001CD70008145F13D63480500B247014662
:10106C0083C547008843CD3D83274900638B071216
:10107C003EC49440ADC622473DC393973600BA9701
:10108C00B3D7D70250408D4508480347060110429C
:10109C003307B7023297034607001378F60F13662F
:1010AC0006082300C700504013D747001377F70FEB
:1010BC001042B18393F7F70F2300E600504003472B
:1010CC000601104232972300F7005840834707016E
:1010DC001843B387B702BA972380070114C103C71B
:1010EC0064008D471305A0F763E2E70C83C6540038
:1010FC0005466385C6101146639AF60A83C74400F9
:10110C0099C789461305A0F76392D70AC147944043
:10111C00518FD98F2320DA00D4400D462322DA00D8
:10112C00544003C7060194423307C7023697230085
:10113C00F70058409306000C8347070118438A07B1
:10114C00BA972D472380E70058408347070118437F
:10115C008607BA97130770F82380E7005840834737
:10116C00070118438607BA9783C70700054793F70B
:10117C00070C6393D70041472304EA005C4003C784
:10118C00070194439547B307F702B69783C7070047
:10119C00858B99C383C7060036972300070001454A
:1011AC0031A003258900652411ED295593F9890097
:1011BC0073A00930B250225492540259F249624A37
:1011CC0045618280032589008325C9001C459C4309
:1011DC0089EF032589008325C9001C45DC47F1D71D
:1011EC0030008297E30705E8C9B782977DD19377E2
:1011FC00F5FD130780F8E39BE7FAE1BF0146FDBD5F
:10120C00411106C60C491D35635905009307A0F71B
:10121C006305F500B240410182800145E5BF73775B
:10122C0004305C4115467D55944383C70701B38751
:10123C00C702B69783C70700858B91C783C7060083
:10124C0001452380F5009377870073A007308280D7
:10125C0037C700029307C7FF130687FF9443084262
:10126C008C43E399D5FE82804111014681451D4591
:10127C0006C6EFF04FE1E93F130600648146EFE04C
:10128C00FFF31307006423AEB18023ACA180B30538
:10129C00B702B307A7023337A70213860764BA95C0
:1012AC0023A0F182B337F60023A2B1823387B700B3
:1012BC00F32740F1B716400093860680B6978E0749
:1012CC00FD56D4C390C31D45D8C3EFF04FDAB240DE
:1012DC00014541018280411106C622C47374043059
:1012EC00853F03A701829307006403A64182198DF1
:1012FC003355F5022188B307F5023E97B337F70053
:10130C00B29723A0E18223A2F18283A7818103A655
:10131C00C181B386A700B3B7F600B29723AEF180B4
:10132C0023ACD18023AE0182732004302244B2401E
:10133C0041016F009046F3750430FD57631DF502B3
:10134C0003A7018283A64182B70700C0BA9733B7BF
:10135C00E7003697F32640F1371640001306068057
:10136C00B2968E067D56D0C29CC2D8C293F7850029
:10137C0073A00730828003A7C18383A7818183A6D2
:10138C00C1811358F541BA9733B7E7003E953697AC
:10139C004297B336F500BA9693070064B386D7022A
:1013AC0033B7A702B387A702369783A6018203A699
:1013BC004182B308C7403385D74033B8A700639642
:1013CC000801370800C0E377A8F8B70700C0B69744
:1013DC00B3B6D7003387C600B5BF411106C622C4C9
:1013EC0073740430B53583A7018221881D8D930752
:1013FC0000643355F50223AEA18273200430B24051
:10140C00224441018280411122C406C65C492A84CF
:10141C0099EF014558443305A0408347170093E7E3
:10142C001700A300F700B24022444101828082974A
:10143C006DD19357F5413D8D1D8D9307F00F63D4FE
:10144C00A7001305F00F5C442380A700E1B701CD82
:10145C005845014583471700858B99C703450700FD
:10146C0013351500828001458280F377043001A08A
:10147C00411106C6DD3F411106C622C426C2737453
:10148C000430938741A284472188DD3773200430D0
:10149C002244B2402685924441016F00207B1317F1
:1014AC002500B737309005059387C7F00A05411121
:1014BC003E97AA9722C426C20043844306C663679C
:1014CC009400B2402244924441018280484001C9B8
:1014DC0083478501858B91E33D372104CDB71C40B3
:1014EC008297E5BF797105470D452386E18406D6C1
:1014FC0022D426D24AD04ECE5D37EF00D0351145DE
:10150C00793FB737309037393090138447949384B0
:10151C00479413094994636A240326842123FD54B8
:10152C00B729309063672405212BEFF0EF88938760
:10153C00018E03C7C700799B2386E700B250225463
:10154C0092540259F249456182805C503EC21C5053
:10155C003EC05C488328C4010328840118485444C5
:10156C0010444C4008409D221C40A0D71304040397
:10157C005DB7105454546314960063879600B36798
:10158C00D600084089E7B1231304040361BF938597
:10159C00E99B6105EF009006C5BF01114AC813090C
:1015AC0000093309250326CAD144B73730909387F5
:1015BC00070722CCB71630902A8493850125B304F3
:1015CC0095023E99938741A2260502C2AA95BD4871
:1015DC004A850148BE9485473EC02687814793863D
:1015EC00A66C1306002006CED5208347D90023888D
:1015FC0084000504ED9BA306F900B73730902E0448
:10160C00938707273E9423A62401C0C0F24062446E
:10161C00D2444249056182807971014506D622D4B3
:10162C0026D24AD04ECEA53D0142138501970D2AF4
:10163C00EFF02FA70545A535094595356121B7373D
:10164C003090938747F03EC28547B7163090B74528
:10165C0030901389018E8148014801479386064FCB
:10166C0013060040938505C73EC0938441A2814771
:10167C001385018E23AA240191288347D900138551
:10168C00018EED9BA306F900D12C014539377379F6
:10169C00043083A98400D55723A0F908F3770430CC
:1016AC002121638AA9002A8488C431250325440892
:1016BC00CE85EFE03FE913798900732009304111A1
:1016CC0006C6F3770430EFF0EFA1E5BF797106D6CB
:1016DC0022D426D24AD04ECEAE899305C5066CD5FF
:1016EC002CD9C2553D06937406FF33899900230605
:1016FC00B5009145A306B50023071501CA8523241F
:10170C000500A3070500232C0500232E05002A84C1
:10171C0036C63AC43EC242C0EFF06FBC3D0592479C
:10172C00419902482247B2463309A940232A34077B
:10173C0024DC68DC4A862285CE85EFF0AFB6938731
:10174C0041A29C47232404064A8583A787082324A7
:10175C00F408B250225492540259F24945618280E5
:10176C00930710102316F500232A0506232C0506D3
:10177C00232405082322050823A6A1A28280584110
:10178C001C411CC3D8C323200500232205008280E2
:10179C00411122C406C62A84DD378347D400232492
:1017AC000400F59BA306F400B24022444101828060
:1017BC008347D5001397870161876349070813F79F
:1017CC00F70149E7411122C406C626C293E707F880
:1017DC00A306F500938741A29C4F138441A2138763
:1017EC00C1A3544C639AE70018C154C188C248CCB9
:1017FC0015A0E38BF6FE9C43E5DB0306E500838531
:10180C00E700E308B6FEE356B6FED4431CC154C150
:10181C0088C2C8C3044C6383E40091E044441C4474
:10182C0003C7D7007D8B09EF83D6E7001307F007BA
:10183C006378D7005CC8B240224492444101828054
:10184C00638497002685852944C8F5B782800111E9
:10185C0022CC26CA938741A206CE4AC8AE848C47B6
:10186C00D557138441A223A0F508938741A4638420
:10187C00A700F3770430032944012EC6638B25019E
:10188C004A85232424010529B24503254908EFE0A4
:10189C007FCBA18873A004301C44F240624403A5A2
:1018AC000708D244424905618280411122C406C610
:1018BC0026C24AC08347D5002A84139787016187C3
:1018CC006357070093F7F707A306F5004D3D8347D1
:1018DC00D40093E707F8A306F400938741A29C4F2A
:1018EC00938441A21387C1A3D44C639AE70018C018
:1018FC0054C080C2C0CC15A0E38BF6FE9C43E5DB44
:10190C000306E4008385E700E308B6FEE356B6FE63
:10191C00D4431CC054C080C2C0C303A984019C44DE
:10192C006304E9006314090003A9C400638C8700F5
:10193C0003C7D7007D8B19E783D6E7001307F007A1
:10194C006367D700638427014A85B526CA87DCC83C
:10195C00B24022449244024941018280411106C6A0
:10196C0022C473740430A935218873200430B2402A
:10197C00224441018280411106C622C426C2F3745E
:10198C0004308347D50093F7870281EF1C452A84E6
:10199C0091C3FD3B8347D4002285ED9BA306F40045
:1019AC00013DA18873A00430B2402244924441010D
:1019BC00828085452115C1B713F7850011CB93871C
:1019CC0041A2944391E6D44B9C476383F60041B506
:1019DC00732007308280011122CC06CE26CA1374E4
:1019EC00850015C8938741A2984315E78C47D84BBF
:1019FC006303B702555723A0E50873770430C44B33
:101A0C002EC6638A9500268584C77524B24503A526
:101A1C004408EFE03FB373200430F2406244D244F8
:101A2C0005618280F3770430138741A2144703C702
:101A3C00F6007D17A387E600A18B73A00730828088
:101A4C00411106C622C426C24AC07379043093865B
:101A5C0041A29C46938441A203C7F7000507A387C4
:101A6C00E700804E1387C1A36303E40011E0C04478
:101A7C0003C7D7007D8B19E783D6E7001307F00760
:101A8C006367D7006384870022853524A287DCC86E
:101A9C001379890073200930737504302244B240E5
:101AAC0092440249410105BF938741A2C84B8280F1
:101ABC00938741A29447D84B23A2A6080325470835
:101ACC0098C78280938741A21387C1A398CFD8CFA0
:101ADC008280F37504308347D500918B95C7011133
:101AEC0022CC2A84610506CE2EC695218347D400CC
:101AFC002285ED9BA306F40065396244B245F240A1
:101B0C00138541A405614DBDA18973A00530828068
:101B1C00938741A288478280011106CE22CC26CA27
:101B2C004AC84EC652C456C2034AC500F3740430A8
:101B3C008347D50013F7870009CFA18873A0043021
:101B4C00F2406244D2444249B249224A924A056167
:101B5C00828013E7870093168701E1862A8463CE7F
:101B6C00060AA306E5001C4499C32285153113050A
:101B7C008401F12E9309C4060329C4066384290148
:101B8C006316090A938741A29847138941A2814A97
:101B9C006316E400832A0900B33A500183298901B2
:101BAC009387C1A36384F900639409008329C90056
:101BBC00630437014E8501222285232A3901EFE087
:101BCC00BFF1638B0A0083278900054723A2E7082E
:101BDC0013850197EFF0DFB8832789006314F406AF
:101BEC0083270900A5E38347C400A685858B91CB89
:101BFC00A18873A004301145814273000000F37575
:101C0C000430138541A4A131137A1A00E30A0AF2B5
:101C1C00114581427300000025B793F7F70793E74E
:101C2C008700A306F500EFF09FB535BF4A85EFF0AE
:101C3C003FB613058901212E4A8523200908EFF0B0
:101C4C003FB71DBFA18873A004307DBFF1B593874A
:101C5C0001A0B307F54037B7AAAA1307B7AA8D8717
:101C6C00B387E70213870184BA9705472380E700FF
:101C7C0082800357E5009307F00763ECE702B73760
:101C8C00309083A747029DC303A741848306E500D8
:101C9C00814763CDE6000347D5007D8B01EBB73759
:101CAC003090938707071D8DB337A00013F51700ED
:101CBC0082808147E5BF411126C283C441A322C45F
:101CCC00614433848402938701A04AC02A8906C6E2
:101CDC003E942285AD2C93870184BE944A85238043
:101CEC000400413F1DC1B737309003A6470222853F
:101CFC002244B240924402497D16B7253090935647
:101D0C00F6419385A5C54101D5A8B2402244924421
:101D1C00024941018280411106C622C426C2F374D5
:101D2C000430938741A203C7070193860184369739
:101D3C000347070011CF80472285253F11C98347F0
:101D4C00D400FD8B81E72285EFF03FB62285A537C5
:101D5C00A18873A00430B240224492444101828095
:101D6C00B73730909387870288436313F50001459A
:101D7C008280411122C406C62A84DD371DC518494C
:101D8C005C499356F441330587403337A700958F50
:101D9C00998F634CF00099E36349050063D3070006
:101DAC000145B240224441018280370500807D15F7
:101DBC00CDBF83A7818499E36FF02FE20145828028
:101DCC000DC5B737309093878702DC43630FF5005E
:101DDC00184101CF1C4B14494C49504BBE96B3B71C
:101DEC00F6002E96B29714CB5CCB58411C411CC309
:101DFC00D8C323200500232205008280797122D4C8
:101E0C0026D24AD052CC5AC806D64ECE56CA5EC638
:101E1C00FD572A84B284368B328A36896314F600D5
:101E2C006384C6120CC4F37904306340090651373D
:101E3C0093871400B3B497001357F54103AA81821A
:101E4C00DA943389A700BA9403A7C182B337F90097
:101E5C00A6974A9A232824015CC833392A01BA97D9
:101E6C00AA8A3E998544ED3DAA87373530901307F1
:101E7C0085020328470013058502A9E708C0232221
:101E8C0004012320880040C1ADA003A7818283A751
:101E9C00C182F9563387E640B3B6E60093C7F7FF25
:101EAC00958FB304974033379700B3876741998F69
:101EBC006346F00091E399E08544814704C85CC80F
:101ECC00814455B7CC4B5048984B14486346B600E8
:101EDC006390C50663FEE604B306D7403337D700DC
:101EEC00918D998DD84394CBCCCB58C01CC000C3DA
:101EFC00C0C3BD35631DA40083A7818489EB99E021
:101F0C004D3DAA8A5685B5358145EFF0CFC293F980
:101F1C00890073A00930B25022549254F249D24A2B
:101F2C00424BB24B5285CA85624A02594561828046
:101F3C003387E640B3B6E6000D8E158E18C850C830
:101F4C00E38E07F39C4315BF014A0149E9B74111E0
:101F5C0006C622C426C24AC0F37404301C4185CF85
:101F6C002A84FD3B2A892285A13D0147B7070080C1
:101F7C0018C85CC8631789002D3DE53B8145EFF01F
:101F8C008FBB0145A18873A00430B2402244924417
:101F9C000249410182802955F5B7797106D622D4C0
:101FAC0026D24AD04ECEF374043023A4A1844D3BE8
:101FBC0083A7818403A7818203A8C182A18813D639
:101FCC00F7410DC1544900496346D6006395C604D8
:101FDC0063F38704B305F4403334B400918E818EDF
:101FEC000CC954C93E97B337F7004296B2970145D6
:101FFC0023A4E18223A6F18223A401849D3B814585
:10200C00EFF06FB373A004302254B25092540259C3
:10201C00F249456109B322979356F441C296B337FE
:10202C008700B69723A6F182014881471CC9232A51
:10203C00050123A4E1822AC6613373A00430324522
:10204C001C458297F374043083A78184818F23A469
:10205C00F1843933B1BF37353090130545F26FE059
:10206C006FFCAA95AA876385B70003C7070001E731
:10207C003385A74082808507FDB739713EDAB737C3
:10208C0030902ED2AA8503A5879632D4501006CE56
:10209C0036D63AD842DC46DE32C6212AF2402161DD
:1020AC00828093087003B388D840AA8793F8F80FFE
:1020BC003285FD8A2143414E2546954E13F7F70F85
:1020CC00638C660A638AC60D139FF50113D817003B
:1020DC00939FE501898333680F01B3E7FF00C29733
:1020EC0013DF15008981FA9533B807012E98131F59
:1020FC00C80193D54700B365BF00BE95135F480078
:10210C007A98B3B7F500C297139F870113D885004F
:10211C0033680F012E9813DF8700FA97B335B80098
:10212C00BE9593970501135F080133EFE701429FBA
:10213C0093D70501BE9533380F012E98B3070F01C5
:10214C00B3B5E701C2951398D5018D83B367F80039
:10215C003388D7038D810608330707411377F70FB0
:10216C006373E60213881700333FF8005917C287D0
:10217C00FA951377F70F05A81398D5018D831D8B4E
:10218C00B367F8008D81130707032300E50033E7DD
:10219C00B700050505F782801398C50191833D8B27
:1021AC00B367F8009181E370E6FE46971377F70F5B
:1021BC00D9BF5971D6CA86D6A2D4A6D2CAD0CECE91
:1021CC00D2CCDAC8DEC6E2C4E6C2EAC06EDE834711
:1021DC004500832A8500898B63820724AA89B284EF
:1021EC00014983CC0500638C0C2293075002938B1E
:1021FC001500639AFC0083CC150093075002938B57
:10220C002500639AFC000509CE856685829A634198
:10221C000520DE85F9B737373090014D014A01446E
:10222C007D469306C006930540071305A0071308C7
:10223C0080069308A0061303C004130EA002930E8D
:10224C00E002130FF007C14FA542130707F7636FA6
:10225C00860493870CFE63E6FF008A07BA979C43BB
:10226C00828793870CFD63F4F206639FCC0793730C
:10227C0004049C4091046398031063C20706136422
:10228C0004023E8A19A01364140083CC0B00850B46
:10229C00E39F0CFAADA81364240013644400F5B753
:1022AC0013648400DDB713640401C5B763678F043E
:1022BC0093870CFDA543E3EAF3FA93730404638854
:1022CC000300A943B3037D02338DF3007DBFA94303
:1022DC00B3037A0213640402338AF3007DB7330A22
:1022EC00F0401364840255B76399DC0193770404BE
:1022FC00639707121364040449BF6383DC0663EC21
:10230C00960563870C07638D1C07638B6C066357FC
:10231C000D001374F4FB42044180014D93E60C0252
:10232C001387B6F9894763F6E70093071006639E97
:10233C00F6049D04E198373B3090A1049D4C130B9F
:10234C008BF621885DC80144639B8C0A3306990186
:10235C00330A9A41EDA4E38ABCF2E388ACF245BFA0
:10236C009377040899C3136404201364040831BFE1
:10237C009377041099C3136404201364041031B7C9
:10238C001364042819B73E8D09B79387DCF94947C4
:10239C006368F71E373730908A07130747FBBA97E5
:1023AC009C4382879C40854C9104230CF100130BB9
:1023BC00810141BF03AB0400938D440063160B00F5
:1023CC00373B3090130B0BF693770404FD5591C3F8
:1023DC00EA855A85EFF0FFC8AA8CEE849DB7CE85AE
:1023EC0013050002829A634505027D14E3E98CFE15
:1023FC00529933098940228AB9B75284C5BFB307B1
:10240C008B0003C50700CE850504829AE35E05F2B6
:10241C0083C7490093E747002382F9007D59B650E2
:10242C0026549654F649664AD64A464BB64B264C29
:10243C00964C064DF25D4A8506596561828093770C
:10244C000408D1CB93770420C9C39D04E19888403C
:10245C00CC40138B84009374F4FEC204C18063DB04
:10246C000508B337A000B305B0409D8D3305A040DF
:10247C0093E40440130C8101A9466286EFF07FC2FD
:10248C0093F70404330C8541E1CF93F7E4FFC207C3
:10249C00C183635BAC1563840C1493FD04016A84E3
:1024AC00BE8463870D06090493F7840063920716B4
:1024BC0093F7140089CB628D6357440133048A402F
:1024CC00330D84015284A2872DAA8840138B4400BB
:1024DC009355F54149B7937704108840138B44000A
:1024EC00E5DB9377042081C762056185D5B742058A
:1024FC004185F9BFB367B500B5FF93770404BDDB25
:10250C00E31A0DF69374E4FEC204C1800144014C3D
:10251C0093FD6440E38A0DF80504814D71B73D9835
:10252C0042044180A94693770408C1C793770420DD
:10253C00A5CF9D04E1988840CC40138B8400B367F1
:10254C00B500D9E7937494FEC20493770404C18058
:10255C00C1C763130D08937484FEC204C180014C7F
:10256C0093FD040163840D0813041C00E38E0CF22C
:10257C00628415BF13640401C146930C800765B7D0
:10258C00930780076397F600B386964193E606019E
:10259C0059BFCE8513055002829AE34B05E6090913
:1025AC00A5B1A146814C41B78840138B44008145AD
:1025BC0079B7937704108840138B4400EDDB937745
:1025CC00042081C71375F50FDDB742054181C5B7EE
:1025DC00659893140401C180130C810179BDB998DD
:1025EC00C204C1806A842DB7BE849DBF62840DB7BE
:1025FC00CE85130500023EC6829AE34B05E0B24736
:10260C008507E3C747FF330489403309F4003E8450
:10261C0063810D04CE8513050003829AE34A05DE1F
:10262C0063920C0205094A9DB3072D416345FC04D6
:10263C00E284B1E833062C01330A8A40DA84328909
:10264C00329A9DA00909CE856685829AE35D05FCC8
:10265C00C1B393F76440E1DB93F724001305000248
:10266C0099C31305B00293F4044099C01305D0022A
:10267C000509CE85D9BFCE85130500030509829ABD
:10268C00E35405FA71B3FD143C08A69703C5070083
:10269C00CE85829AE35F05F8A5BBCE8513050002B3
:1026AC000509829AE34605D6B3072A41E347F0FEB3
:1026BC008DB62A8309CA83830500230073007D1617
:1026CC00050385056DFA82802A8311C62300B300A9
:0826DC007D16050365FE8280F6
:1026E400000000000C2730900000000028273090E4
:1026F400C60E3090000000007412309000000000FC
:08270400040D309000000000FC
:10270C009C2E3090BC2E3090000000003030309069
:10271C0044323090FE0D309000000000E42E3090DA
:10272C00EC2E309044293090323030901430309070
:08273C000C12309000000000B7
:1027440000000000880A309000000000880A3090E1
:1027540000000000880A309000000000880A3090D1
:1027640000000000880A309000000000880A3090C1
:1027740000000000880A309000000000E21230904F
:1027840000000000880A309000000000880A3090A1
:1027940000000000880A30900C273090940D30908F
:1027A40000000000880A309000000000880A309081
:1027B40000000000880A309000000000880A309071
:1027C40000000000880A309000000000880A309061
:1027D40000000000880A309000000000880A309051
:1027E40000000000880A309000000000880A309041
:1027F40000000000880A309000000000880A309031
:1028040000000000880A309000000000880A309020
:1028140000000000880A309000000000880A309010
:1028240000000000880A309000000000880A309000
:1028340000000000880A309000000000880A3090F0
:1028440000000000880A309000000000880A3090E0
:1028540000000000880A309000000000880A3090D0
:1028640000000000880A309000000000880A3090C0
:1028740000000000880A309000000000880A3090B0
:1028840000000000880A309000000000880A3090A0
:1028940000000000880A309000000000880A309090
:1028A40000000000880A309000000000880A309080
:1028B40000000000880A309000000000880A309070
:1028C40000000000880A309000000000880A309060
:1028D40000000000880A309000000000880A309050
:1028E40000000000880A309000000000880A309040
:1028F40000000000880A309000000000880A309030
:1029040000000000880A309000000000880A30901F
:1029140000000000880A309000000000880A30900F
:1029240000000000880A309000000000880A3090FF
:1029340000000000880A309000000000880A3090EF
:102944002A123090E20F30900E10309038103090F0
:04295400B80F3090F8
:102958000C273090020000000B0000000C00000063
:10296800003030900000000078293090010000000D
:1029780080293090020000001000110000010202BE
:1029880003030303040404040404040405050505FF
:1029980005050505050505050505050506060606DB
:1029A80006060606060606060606060606060606BF
:1029B80006060606060606060606060607070707AB
:1029C800070707070707070707070707070707078F
:1029D800070707070707070707070707070707077F
:1029E800070707070707070707070707070707076F
:1029F800070707070707070707070707080808085B
:102A0800080808080808080808080808080808083E
:102A1800080808080808080808080808080808082E
:102A2800080808080808080808080808080808081E
:102A3800080808080808080808080808080808080E
:102A480008080808080808080808080808080808FE
:102A580008080808080808080808080808080808EE
:102A680008080808080808080808080808080808DE
:102A7800080808080808080808080808686966694E
:102A88007665312F66653331305F6730303000004E
:102A980048656C6C6F20576F726C64212025730A2F
:102AA80000000000206D63617573653A20256C6431
:102AB8002C2025730A00000020206D7476616C3A82
:102AC80020256C780A000000202020202061303A60
:102AD800202530386C782020202074303A2025308A
:102AE800386C780A00000000202020202061313A4C
:102AF800202530386C782020202074313A20253069
:102B0800386C780A00000000202020202061323A2A
:102B1800202530386C782020202074323A20253047
:102B2800386C780A00000000202020202061333A09
:102B3800202530386C782020202074333A20253026
:102B4800386C780A00000000202020202061343AE8
:102B5800202530386C782020202074343A20253005
:102B6800386C780A00000000202020202061353AC7
:102B7800202530386C782020202074353A202530E4
:102B8800386C780A00000000202020202061363AA6
:102B9800202530386C782020202074363A202530C3
:102BA800386C780A00000000202020202061373A85
:102BB800202530386C780A00202020202073703AB5
:102BC800202530386C780A00202020202072613AB5
:102BD800202530386C780A002020206D6570633A13
:102BE800202530386C780A006D7374617475733AF7
:102BF800202530386C780A00202020202073303AB5
:102C0800202530386C782020202073363A20253053
:102C1800386C780A00000000202020202073313A08
:102C2800202530386C782020202073373A20253032
:102C3800386C780A00000000202020202073323AE7
:102C4800202530386C782020202073383A20253011
:102C5800386C780A00000000202020202073333AC6
:102C6800202530386C782020202073393A202530F0
:102C7800386C780A00000000202020202073343AA5
:102C8800202530386C782020207331303A202530C8
:102C9800386C780A00000000202020202073353A84
:102CA800202530386C782020207331313A202530A7
:102CB800386C780A00000000496E7374727563748A
:102CC800696F6E2061646472657373206D697361E6
:102CD8006C69676E65640000496E7374727563741D
:102CE800696F6E20416363657373206661756C74E8
:102CF80000000000496C6C6567616C20696E737434
:102D080072756374696F6E00427265616B706F698A
:102D18006E7400004C6F6164206164647265737343
:102D2800206D6973616C69676E6564004C6F6164DE
:102D380020616363657373206661756C74000000BD
:102D480053746F72652F414D4F20616464726573CF
:102D580073206D6973616C69676E656400000000BB
:102D680053746F72652F414D4F20616363657373B0
:102D7800206661756C740000456E7669726F6E6DC1
:102D8800656E742063616C6C2066726F6D20552DC2
:102D98006D6F646500000000456E7669726F6E6D38
:102DA800656E742063616C6C2066726F6D20532DA4
:102DB8006D6F646500000000756E6B6E6F776E0056
:102DC800456E7669726F6E6D656E742063616C6CAA
:102DD8002066726F6D204D2D6D6F646500000000D8
:102DE800496E737472756374696F6E20706167657C
:102DF800206661756C7400004C6F616420706167B7
:102E080065206661756C740053746F72652F414D4F
:102E18004F2070616765206661756C740000000062
:102E2800C02C3090E02C3090FC2C3090102D30903D
:102E38001C2D3090342D3090482D3090682D3090D6
:102E4800802D3090A02D3090C02D3090C82D30901E
:102E5800E82D3090002E3090C02D3090102E3090FC
:102E6800C02D309020202020202532643A20737015
:102E78003A202530386C782072613A202530386C39
:102E8800780A000063616C6C2074726163653A0AA9
:102E980000000000696E746572727570742D636F3E
:102EA8006E74726F6C6C65724063303030303030E5
:102EB800000000000000000C0020000C0000200CA6
:102EC8000700000034000000340000000B00000080
:102ED800260D3090A42730906C29309055415254DB
:102EE8005F3300000030011000E1F505000000002C
:102EF8000000000001000000702930906D61696ECB
:102F080000000000E4263090E4263090FC26309043
:102F1800042730900C2730900C2730902A2A2A203A
:102F2800426F6F74696E67205A6570687972204FB6
:102F380053206275696C642076342E332E302D3917
:102F480034302D6763396230316538323537646221
:102F5800202A2A2A0A000000286E756C6C290000B5
:102F68002A666C6F61742A00A62230906E22309017
:102F78006E223090B22230906E2230906E223090C5
:102F88006E223090962230906E2230906E223090D1
:102F98006E223090A22230906E223090AC22309077
:102FA8006E2230906E22309092223090B023309072
:102FB8004A2430908C2530908C2530908C25309088
:102FC8008C2530904A2430908C2530908C25309078
:102FD8008C2530908C2530908C253090AE25309003
:102FE800802530908C2530908C253090C0233090EF
:082FF8008C2530902A25309051
:103000000000000000000000DC0C30900000000018
:103010000000000000C201000001030000000000E9
:10302000EC073090C80000002830309028303090F5
:04303000000000009C
:040000059030000037
:00000001FF
